:030000000201708A
:0C017000787FE4F6D8FD7581680201B7C5
:0403FE000267B6AB31
:10024700120389E4F580F590F5A07B007A007967C1
:100257001202CAEF602A7B007A0079681202CA7517
:100267000C00750D00750E477B007A007967120048
:1002770026E4F5081201FC0508E508C3944040F49C
:050287001201FC80C51E
:100026001200D0245FFF9000011200E9245FFDEF6B
:1000360075F05EA47C002DFFEC35F0FEE48F128E89
:1000460011F510F50FAD10AC0F780512015D8F128A
:100056008E118D108C0FE4F513AF12AE11AD10ACEE
:100066000F781012014AC007E512FFE511FEE4FC05
:10007600EF2513FDEC3EFCD007120003AB0CAA0DD6
:10008600A90E851382758300E4120128E4FEAB0CE9
:10009600E50E2513F9E4350DFA1200D0FDC37407F9
:1000A6009EFCEFA804088002C313D8FC5401FCA8E8
:1000B60006088002C333D8FC4D1201160EBE08CEC8
:0900C6000513E513C394204090DA
:0100CF00220E
:0601FC007B007A00794748
:060202008B098A0A890B3A
:10020800E4FFFE8F90E4FDAB09AA0AA90B75F00282
:10021800EEA4F58285F0831200E9F5A0AB09AA0ADD
:10022800A90B75F002EEA42401F582E435F0F583FC
:0E0238001200E9F5800DBD14CE0F0EBE10C5EC
:010246002295
:1003C700D2B7D2B600000000C2B700000000C2B624
:0103D7002203
:0F03D800C2B700000000D2B600000000D2B7226A
:10039F00E4FED2B6EF25E0FFA2B7E4334207C2B6C0
:0403AF000EBE08EE88
:0103B3002227
:1002FD00E4FEEF3392B700D2B600000000C2B6EFB5
:10030D0025E0FF0EBE08EBD2B700000000D2B6000C
:0B031D00000000A2B79201C2B6A201CE
:0103280022B2
:100329001203C7EF25E044A0FF1202FDAF04120239
:10033900FDAF051202FDAF031202FD1203D87F0AB9
:050349007E00020373B9
:1003B4001203C7EF25E044A1FF1202FD12039F12AE
:0203C40003D85C
:0103C6002214
:10000300AB071203C7EB25E044A0FF1202FDAF04C8
:0E0013001202FDAF051202FDAF031203B4226C
:10037300EF1FAA0670011E4A600BE4FDEDC39478DB
:0503830050EE0D80F7B3
:010388002252
:100389001203E7759850758920758BF3758DF3D233
:060399008ED2ACD2AF22AF
:0E03E700E4F521F522F523F524F525F526226F
:0903F5002000FDEFD200F5992271
:10034E008B148A158916AB14AA15A9161200D06043
:10035E00130516E5167002051514F91200D0FF12DA
:05036E0003F580E2220E
:1002CA00E52645257006FF12011680267F010522C4
:1002DA00E52270020521142427F8E6120116E52604
:1002EA00152670021525E522642045217004F521A2
:0202FA00F522EB
:0102FC0022DF
:0300230002028C4A
:10028C00C0E0C0D075D000C000309824C2980524BE
:10029C00E52470020523142427F8A6990526E526E3
:1002AC0070020525E524642045237004F523F5240C
:0E02BC00309904C299C200D000D0D0D0E032F8
:10017C00020247E493A3F8E493A34003F68001F250
:10018C0008DFF48029E493A3F85407240CC8C33384
:10019C00C4540F4420C8834004F456800146F6DF53
:1001AC00E4800B01020408102040809003FEE47EE2
:1001BC00019360BCA3FF543F30E509541FFEE49348
:1001CC00A360010ECF54C025E060A840B8E493A30F
:1001DC00FAE493A3F8E493A3C8C582C8CAC583CA3A
:1001EC00F0A3C8C582C8CAC583CADFE9DEE780BEF2
:0104020000F9
:1000D000BB010689828A83E0225002E722BBFE022E
:0900E000E32289828A83E4932261
:1000E900BB010CE58229F582E5833AF583E02250CC
:1000F90006E92582F8E622BBFE06E92582F8E22216
:0D010900E58229F582E5833AF583E493222F
:10011600BB010689828A83F0225002F722BBFE01C8
:02012600F322C2
:10012800F8BB010DE58229F582E5833AF583E8F00D
:10013800225006E92582C8F622BBFE05E92582C8B9
:02014800F222A1
:10014A00E8600FECC313FCED13FDEE13FEEF13FF93
:03015A00D8F122B7
:10015D00E8600FEFC333FFEE33FEED33FDEC33FC00
:03016D00D8F122A4
:00000001FF
